:020000040800F2
:100000000020002045090008390900083B090008C4
:1000100000000000000000000000000000000000E0
:100020000000000000000000000000003D09000882
:1000300000000000000000003F090008410900081E
:100040009509000895090008950900089509000818
:100050009509000895090008950900089509000808
:1000600095090008950900089509000895090008F8
:1000700095090008950900089509000895090008E8
:10008000950900089509000800000000B502000865
:1000900095090008950900089509000895090008C8
:1000A00095090008950900089509000895090008B8
:1000B00095090008000000009509000800000000F4
:1000C00003B47146490840004900095E49008E4466
:1000D00003BC7047002243088B4274D303098B4250
:1000E0005FD3030A8B4244D3030B8B4228D3030C08
:1000F0008B420DD3FF22090212BA030C8B4202D3AA
:100100001212090265D0030B8B4219D300E0090AD1
:10011000C30B8B4201D3CB03C01A5241830B8B42DA
:1001200001D38B03C01A5241430B8B4201D34B03C3
:10013000C01A5241030B8B4201D30B03C01A524128
:10014000C30A8B4201D3CB02C01A5241830A8B42AD
:1001500001D38B02C01A5241430A8B4201D34B0296
:10016000C01A5241030A8B4201D30B02C01A5241FA
:10017000CDD2C3098B4201D3CB01C01A52418309AE
:100180008B4201D38B01C01A524143098B4201D3E8
:100190004B01C01A524103098B4201D30B01C01A13
:1001A0005241C3088B4201D3CB00C01A524183088D
:1001B0008B4201D38B00C01A524143088B4201D3BA
:1001C0004B00C01A5241411A00D20146524110461A
:1001D0007047FFE701B5002000F006F802BDC046F9
:1001E0000029F7D076E770477047C04610B5064C37
:1001F0002378002B07D1054B002B02D0044800E0E8
:1002000000BF0123237010BD540000200000000037
:10021000F4120008044B10B5002B03D00349044826
:1002200000E000BF10BDC0460000000058000020E4
:10023000F41200080D4B5969802292020A435A6158
:100240009022D2051168FF2081431160D168AA383D
:100250000143D16059698022D2020A435A61044B9A
:100260001A6802431A6000225A6170470010024067
:10027000000400480B4AD16980235B000B43D36123
:10028000094BE022FF329A62084ADA62DA680121F9
:100290000A43DA60064A8020000310601A680A43A5
:1002A0001A6070470010024000200040E703000081
:1002B00000E100E0164B1B69DB0714D5144A1369F3
:1002C00001218B431361134B1B78002B0BD0124B76
:1002D0001B78002B07D1114A13780133DBB213705E
:1002E0001378642B00D07047130000221A700C4A58
:1002F00013780133DBB2137013783C2BF3D1130066
:1003000000221A70074A13780133DBB21370EAE750
:100310000020004077000020010000207300002032
:100320007400002075000020002201E0C046013268
:1003300043011B1A9B001B185B019342F6D87047C0
:1003400070B588B09023DB051B69DB0714D59023BB
:10035000DB051B699B0728D59023DB051B695B0721
:1003600050D59023DB051B691B0700D473E03220B6
:10037000FFF7DAFF08B070BD4A4B012119704A4AF5
:1003800000231370494A1370494A1370494B5A6944
:100390000A435A615A690D318A435A61012000F0BB
:1003A000F3F9454800F0E4F9D1E7414B01221A7016
:1003B000424B1B78DBB2424E3370424B1B78DBB2B0
:1003C000414D2B70414B1B78DBB2414C2370394BB4
:1003D0005A6902210A435A615A690B318A435A61A8
:1003E000012000F0D1F93378DBB229782078394A3E
:1003F00001900091142103A800F0CEFA03A800F0A8
:10040000B7F9A9E7284B01221A70264B00221A706F
:10041000274B1A70274B5A6904210A435A615A69BB
:1004200007318A435A61012000F0AEF9234B1B7853
:10043000DBB2244A1178254A1078274A01900091AE
:10044000142103A800F0A8FA03A800F091F93220C3
:10045000FFF76AFF85E7134A00231370124A012150
:100460001170134A1370114A1170144A1370154A0F
:100470001370164A13700F4B5A6907310A435A61B9
:100480005A6901398A435A61012000F07DF9134805
:1004900000F06EF9C02000F077F9114800F068F91B
:1004A00065E7C04677000020010000200000002022
:1004B00076000020000400480C130008750000209E
:1004C00072000020740000207100002073000020E2
:1004D000700000201C130008301300084C130008A3
:1004E0005C13000800B589B0264B1B78002B20D187
:1004F000254B1B78002B29D0244B1B78002B25D1B2
:10050000234B1B78002B25D1012000F03DF9214B16
:100510001B78DBB2204A1178204A1078204A0190DB
:100520000091142103A800F037FA03A800F020F985
:1005300010E0012000F028F91A4800F019F9C02055
:1005400000F022F9184800F013F903E00F4B1B7874
:10055000002B01D109B000BD012000F015F90D4BB1
:100560001B78DBB20C4A11780C4A10780F4A0190C4
:100570000091142103A800F00FFA03A800F0F8F886
:10058000E8E7C046000000207700002001000020BE
:100590007600002075000020740000207300002009
:1005A000801300086C1300085C130008781300081F
:1005B00010B500F0C6F900F07FF9FFF73BFEFFF73A
:1005C00059FEFA208000FFF7AFFE084800F0D0F88F
:1005D000C02000F0D9F8064800F0CAF8FFF7B0FED6
:1005E000FFF780FF6420FFF79FFEF7E76C1300081A
:1005F0005C13000882B0430018180023019304E044
:10060000C046C046019B01330193019B8342F7D34F
:1006100002B0704770B51420FFF7ECFF0A4CA369D5
:1006200080252D022B43A3611420FFF7E3FFA2696D
:1006300080231B061343A3611420FFF7DBFFA3698C
:100640001D43A56170BDC0460008004810B50400F8
:10065000454A91698023DB010B43936143B2002B30
:1006600046DB9022D205916980231B060B439361E0
:10067000630645D59022D205916980235B010B4327
:100680009361A30644D5394A916980239B000B43AB
:100690009361E30643D5354A916980235B000B43A0
:1006A0009361FFF7B7FF230740D59022D2059169E8
:1006B00080231B020B43936163073FD59022D20531
:1006C000916980235B010B439361A3073ED5274AC1
:1006D000916980239B000B439361E4073DD5234A36
:1006E000916980235B000B439361FFF793FF10BD7B
:1006F0009022D205916980231B020B439361B7E7D7
:100700009022D205916980235B050B439361B8E782
:10071000164A916980239B040B439361B9E7134AFE
:10072000916980235B040B439361BAE79022D20561
:10073000916980231B060B439361BDE79022D2058C
:10074000916980235B050B439361BEE7074A91697A
:1007500080239B040B439361BFE7044A9169802384
:100760005B040B439361C0E70008004800040048A5
:1007700070B50500002403E0FFF768FF0134E4B220
:10078000285D0028F8D170BD10B50400474A916972
:100790008023DB050B43936143B2002B49DB90229E
:1007A000D205916980231B060B439361630648D5EC
:1007B0009022D205916980235B010B439361A306CC
:1007C00047D53B4A916980239B000B439361E30625
:1007D00046D5374A916980235B000B439361FFF74D
:1007E00019FF230743D59022D205916980231B026C
:1007F0000B439361630742D59022D2059169802310
:100800005B010B439361A30741D5294A916980237A
:100810009B000B439361E40740D5254A91698023EF
:100820005B000B439361FFF7F5FE2248FFF7E2FE02
:1008300010BD9022D205916980231B020B43936166
:10084000B4E79022D205916980235B050B43936145
:10085000B5E7174A916980239B040B439361B6E780
:10086000134A916980235B040B439361B7E790229D
:10087000D205916980231B060B439361BAE790224E
:10088000D205916980235B050B439361BBE7084A5E
:10089000916980239B040B439361BCE7044A9169EF
:1008A00080235B040B439361BDE7C046000800480A
:1008B00000040048B80B000010B51B4B596980229A
:1008C00092020A435A6159698022D2020A435A614C
:1008D0005969802212030A435A619022D205116895
:1008E0008223DB050B431360104A1168A023DB024F
:1008F0000B4313600E4A1168A023DB050B43136002
:100900000C48FFF777FE3320FFF73EFF3220FFF75A
:100910003BFF0C20FFF738FF2820FFF735FF0120B1
:10092000FFF732FF10BDC04600100240000400482F
:100930000008004830750000FEE7FEE7704770478A
:10094000704770470D488546FFF7FBFF0C480D497F
:100950000D4A002302E0D458C4500433C4188C421A
:10096000F9D30A4A0A4C002301E013600432A24280
:10097000FBD300F045F8FFF71BFEFEE70020002048
:100980000000002054000020CC1300085400002078
:10099000C4010020FEE700000CB430B5174B0C007A
:1009A0001D689DB0002908DA8B2301202B6040428E
:1009B0001DB030BC08BC02B0184782236A469B00B9
:1009C0009382002302900690994200D04B1E04931C
:1009D000079301236A465B42D382280021AB209A09
:1009E00002A9019300F08EF9431C01DA8B232B60DE
:1009F000002CDDD00022029B1A70D9E704000020F1
:100A000070B500260C4C0D4D641BA410A64209D1F4
:100A1000002600F06FFC0A4C0A4D641BA410A6428D
:100A200005D170BDB300EB5898470136EEE7B3002F
:100A3000EB5898470136F2E7C4130008C4130008C6
:100A4000C8130008C41300087047704770B505004C
:100A50000C1E10D0043C2368002B00DAE418280098
:100A600000F0E0F81D4A1368002B05D163601460A4
:100A7000280000F0DFF870BDA34208D920682118D3
:100A80008B42F3D119685B6809182160EEE71A0000
:100A90005B68002B01D0A342F9D911685018A0421D
:100AA0000BD120680918501811608342E0D11868F2
:100AB0005B68411811605360DAE7A04202D90C2349
:100AC0002B60D5E7206821188B4203D119685B6839
:100AD0000918216063605460CAE7C046BC01002069
:100AE00070B50F4E0D0031680400002902D100F0EE
:100AF00095FB30602900200000F090FB431C03D1DF
:100B000001256D42280070BD0323C51C9D43A842EA
:100B1000F8D0291A200000F081FB0130F2D1EFE774
:100B2000B8010020F7B50322CB1C9343083305001E
:100B30001F000C2B34D20C27B94233D8280000F008
:100B400071F8374E33681C00002C2FD13900280073
:100B5000FFF7C6FF0400431C5FD134680094009B7C
:100B6000002B4AD1002C52D023682800E3180099AA
:100B7000019300F053FB019B834248D12368280076
:100B8000FF1A3900FFF7ACFF013040D02368DB19B2
:100B9000236033685A68002A33D1009B336019E020
:100BA000002BC9DA0C232B600020FEBD2168C91B75
:100BB00020D40B290AD9E2192760A34204D132605C
:100BC00063681160536005E05A60F9E76268A34208
:100BD0000ED13260280000F02DF8200007220B30E3
:100BE000231D9043C21A9842DFD01B1AA350DCE7A2
:100BF0005A60EFE723006468A6E7009C63680093EF
:100C0000ADE71A005B68A342FBD10023DAE70C23AF
:100C100028002B6000F00EF8C6E70760DAE7C04650
:100C2000BC01002010B50248FFF70EFF10BDC04602
:100C3000B401002010B50248FFF707FF10BDC04601
:100C4000B4010020F0B58E6885B01F000C000B6861
:100C500002900392BE4230D80C21625E9021C900FE
:100C60000A4228D0032021695B1A01936369434338
:100C70000198DD0FED187B1C1B186D10AB4200D9DD
:100C80001D00520528D529000298FFF74BFF061ECC
:100C90002CD0019A216900F0DEFAA289184B1A4083
:100CA00080231343A381019B2661F61826603E0032
:100CB0006561ED1AA560BE4200D93E00320003997D
:100CC000206800F099FA0020A3689B1BA3602368AA
:100CD0009B19236005B0F0BD2A00029800F0C4FA09
:100CE000061EE0D121690298FFF7B0FE0C23012017
:100CF000029A40421360A28934331343A381E9E787
:100D00007FFBFFFFF0B5A1B003901D008B890F00A2
:100D100016001B0611D50B69002B0ED14021FFF7E1
:100D200001FF38603861002805D10C23039A136055
:100D300001204042CFE040237B61002308AC636187
:100D4000203363761033A376079535002B78002B7C
:100D500001D0252B48D1AB1B0593B5420BD03200F7
:100D600039000398FFF76EFF013000D1AEE06369F0
:100D7000059A9B1863612B78002B00D1A6E0012215
:100D800000235242626004A9543252186E1C236040
:100D9000E360A3601370A365544B052218003178FB
:100DA000059300F04DFA751C00281FD12268D30668
:100DB00004D5532304A95B1820211970130704D507
:100DC000532304A95B182B21197033782A2B16D0D2
:100DD000350000210A20E3682A786E1C303A092A7F
:100DE00050D9002911D117E00135AFE7059B2268E2
:100DF000C01A0123834013432E002360CCE7079BD6
:100E0000191D1B680791002B01DB0B9304E05B426B
:100E1000E3600223134323602B782E2B0CD16B78D5
:100E20002A2B34D1079B02351A1D1B680792002B11
:100E300001DA01235B4209932D4E03223000297809
:100E400000F0FEF9002806D04023801B8340226872
:100E50000135134323602978062226486E1C21762B
:100E600000F0EEF9002838D0234B002B22D10722C6
:100E7000079B07339343083307936369049A9B18CE
:100E8000636162E74343350001219B18A4E7002317
:100E90000A201900013563602A786E1C303A092A4D
:100EA00003D9002BC8D00991C6E74143350001237F
:100EB0008918F1E707AA009221003A000F4B039826
:100EC00000E000BF0490049B0133D6D1BB890D988C
:100ED0005B0600D52CE721B0F0BD07AA00922100E7
:100EE0003A00064B039800F07BF8EBE78F130008FD
:100EF000951300089913000800000000450C000835
:100F0000F7B5160001938A680B690C0000909342B4
:100F100000DA13002200336043321278002A01D035
:100F20000133336023689B0602D533680233336094
:100F30002268062315001D401A4227D023004333A0
:100F40001B785A1E93412268920630D422000199E0
:100F50000098089D4332A847013025D00622236817
:100F600000251340042B05D13368E568ED1AEB43E7
:100F7000DB171D40A3682269934201DD9B1AED181F
:100F80000026B54220D1002010E00135E368326828
:100F90009B1AAB42D2DD2200012301990098089FE1
:100FA0001932B8470130F0D101204042FEBD302057
:100FB000E1184331087021005A1C45310978A21804
:100FC000433202331170C1E72200012301990098D6
:100FD000089F1A32B8470130E6D00136D1E7000049
:100FE000F0B58BB006920A00433207930590039246
:100FF0000A7E0C00109B782A09D8622A0BD8002A96
:1010000000D1BAE07A490491582A00D18EE0250037
:1010100042352A7022E0100063381528F7D8FFF710
:101020004FF816001F00F6FFF6FFF6FFF6FF1F0051
:10103000F6FFF6FFF6FFF6FF9F0036007E00F6FF94
:10104000F6FFB000F6FF3600F6FFF6FF820025003F
:101050001A684235111D196013682B7001239EE038
:1010600018680968021D0D060BD506681A60002E67
:1010700003DA2D23039A764213705D4B0A270493FB
:1010800018E006681A604906F1D536B2EFE708683D
:10109000196840C9050602D4400600D5B6B21960E9
:1010A000534B0A2704936F2A00D1023F23000022EA
:1010B00043331A706368A360002B06DB04212268A7
:1010C000039D8A43226033430CD0039D30003900D6
:1010D000FFF786F8049B013D5B5C2B703300060034
:1010E0009F42F3D9082F09D12368DB0706D5626830
:1010F00023699A4202DC3023013D2B70039B5B1B6A
:101100002361079B210000930598069B09AAFFF71E
:10111000F7FE013048D1012040420BB0F0BD202243
:1011200009680A432260782232490491210045313E
:101130000A701968226840C9100602D4500600D50A
:10114000B6B21960D30702D5202313432360002EC3
:1011500001D01027AAE72022236893432360F8E7F1
:101160001A680D68101D4969186013682E0601D5AC
:10117000196002E06D06FBD519800023039D2361F1
:10118000BFE71A68111D1960156800212800626800
:1011900000F056F8002801D0401B606063682361AE
:1011A0000023039A1370ACE72A0023690699059877
:1011B000079DA8470130AED023689B0715D4099B33
:1011C000E0689842A9DA1800A7E7220001230699EF
:1011D0000598079E1932B04701309CD00135E3686D
:1011E000099A9B1AAB42F0DCE9E70025F7E7C04615
:1011F000A0130008B113000810B5884202D98B185B
:10120000984208D300239A4207D0CC5CC4540133DF
:10121000F9E78B5C8354013AFBD210BD002370B513
:10122000064D040008002B6000F056F8431C03D163
:101230002B68002B00D0236070BDC046B001002099
:10124000C9B28218904201D10020704703788B42C6
:10125000FBD00130F6E7002310B59A4200D110BD53
:10126000CC5CC4540133F8E7F7B506000C00150058
:10127000002905D11100FFF755FC04002000FEBD38
:10128000002A03D1FFF7E2FB2C00F7E700F01CF87F
:101290000700854202D84308AB42EFD32900300053
:1012A000FFF740FC0190002801D1019CE6E72A00ED
:1012B000BD4200D93A0021000198FFF7CCFF210080
:1012C0003000FFF7C3FBF0E70B1F1B68181F002B54
:1012D00001DA0B58C0187047044A03001068002850
:1012E00002D0C318136070470148FAE7C00100201C
:1012F000C8010020F8B5C046F8BC08BC9E4670473F
:0C130000F8B5C046F8BC08BC9E4670471B
:10130C0053746172742050726573736564000000CD
:10131C004C617020253032643A253032642E2530F1
:10132C003264000053746F70706564206174202502
:10133C003032643A253032643A2530326400000091
:10134C005265736574205072657373656400000098
:10135C005072657373205357302E2E2E00000000F0
:10136C0053746F70205761746368000053746F700E
:10137C0070656420253032643A253032642E253075
:10138C00326400232D302B2000686C4C006566679E
:10139C0045464700303132333435363738394142DF
:1013AC0043444546003031323334353637383961B1
:0813BC00626364656600000035
:0413C4001502000806
:0413C800ED0100082B
:1013CC00010100000800002000000000780000204F
:1013DC00E000002048010020000000000000000098
:1013EC0000000000000000000000000000000000F1
:1013FC0000000000000000000000000000000000E1
:10140C0000000000000000000000000000000000D0
:04141C0000000000CC
:0400000508000945A1
:00000001FF
